:020000006A296B
:10000800FF00030E8301AC000A08AD008A017008E6
:10001800A7007108A6007208A5007408A400780853
:10002800A3007B08A2007C08A1007D08A0008B1C0F
:100038009F28870186189B28051C5528051505103B
:1000480085108914091009110330A8002808003CFC
:100058000318522887010A30F4002808F000B62057
:100068007808F0007008F100F10D7110F10D7110B1
:10007800F10D7110F10D7110710887040B30FB0040
:100088002630FC005D30FD00FD0B4828FC0B48289D
:10009800FB0B482800000000A8032A28091489102F
:1000A8008928091C89280915091089108514051043
:1000B80005110330A8002808003C03188728870189
:1000C8000A30F4002808F000B6207808F00070081C
:1000D800F100F10D7110F10D7110F10D7110F10DAC
:1000E8007110710887040B30FB002630FC005D306E
:1000F800FD00FD0B7D28FC0B7D28FB0B7D280000F7
:100108000000A8035F280514851087010B30FB0049
:100118002630FC005D30FD00FD0B9028FC0B90287C
:10012800FB0B90280000000086189B289828061CC6
:100138009E288B101B282708F0002608F1002508A8
:10014800F2002408F4002308F8002208FB00210824
:10015800FC002008FD002D088A002C0E8300FF0EED
:040168007F0E0900FD
:10016C0083120313F8010830FC00700DF80D7408AD
:10017C00F8020318C328F8070310F00DFC0BBB287A
:02018C00080069
:0E018E00831203132A088A0029088200080041
:10019C00C7208A110A128000840AA90A0319AA0A24
:0801AC00F003031DCE2808003A
:1001B400831203132E08AB002B08033C03182029D9
:1001C4002E08173A031DEC2805150510851009148F
:1001D400891009112E080F3A031DF62805148510FD
:1001E40005110915091089100A30F4002B08F000D4
:1001F400B620700887000A30F4002B08F000B620FF
:100204007808F0007008F100F10D7110F10D711013
:10021400F10D7110F10D7110710887040B30FB00A2
:100224002630FC005D30FD00FD0B1629FC0B162961
:10023400FB0B162900000000AB03DE282B08033A51
:10024400031D69292E08173A031D2A29851405114F
:100254002E080F3A031D3029891409110330AB000D
:100264002B08003C03185A2987010A30F4002B0894
:10027400F000B6207808F0007008F100F10D71105C
:10028400F10D7110F10D7110F10D711071088704E9
:100294000B30FB002630FC005D30FD00FD0B5029C7
:1002A400FC0B5029FB0B502900000000AB03322942
:1002B40087010B30FB002630FC005D30FD00FD0B98
:1002C4006129FC0B6129FB0B612900000000080077
:1002D40083120313A801073083169F0006148614A3
:1002E400061185018901870183128701850189012E
:1002F4000614861406158B170B1683160113811327
:1003040017308312AE00DA200F30AE00DA208229D3
:020314008A2934
:02400E004A2F37
:00000001FF
